{"abi":[{"type":"function","name":"closePosition","inputs":[{"name":"wallet","type":"address","internalType":"address"}],"outputs":[],"stateMutability":"nonpayable"},{"type":"function","name":"depositors","inputs":[{"name":"","type":"uint256","internalType":"uint256"}],"outputs":[{"name":"","type":"address","internalType":"address"}],"stateMutability":"view"},{"type":"function","name":"getDepositors","inputs":[{"name":"offset","type":"uint256","internalType":"uint256"},{"name":"limit","type":"uint256","internalType":"uint256"}],"outputs":[{"name":"","type":"address[]","internalType":"address[]"}],"stateMutability":"view"},{"type":"function","name":"getPosition","inputs":[{"name":"wallet","type":"address","internalType":"address"}],"outputs":[{"name":"","type":"tuple","internalType":"struct VeraYieldVault.Position","components":[{"name":"amountUSDC","type":"uint256","internalType":"uint256"},{"name":"protocol","type":"string","internalType":"string"},{"name":"receiptToken","type":"string","internalType":"string"},{"name":"depositTimestamp","type":"uint256","internalType":"uint256"},{"name":"active","type":"bool","internalType":"bool"},{"name":"chainId","type":"uint256","internalType":"uint256"}]}],"stateMutability":"view"},{"type":"function","name":"hasDeposited","inputs":[{"name":"","type":"address","internalType":"address"}],"outputs":[{"name":"","type":"bool","internalType":"bool"}],"stateMutability":"view"},{"type":"function","name":"positions","inputs":[{"name":"","type":"address","internalType":"address"}],"outputs":[{"name":"amountUSDC","type":"uint256","internalType":"uint256"},{"name":"protocol","type":"string","internalType":"string"},{"name":"receiptToken","type":"string","internalType":"string"},{"name":"depositTimestamp","type":"uint256","internalType":"uint256"},{"name":"active","type":"bool","internalType":"bool"},{"name":"chainId","type":"uint256","internalType":"uint256"}],"stateMutability":"view"},{"type":"function","name":"recordPosition","inputs":[{"name":"wallet","type":"address","internalType":"address"},{"name":"amountUSDC","type":"uint256","internalType":"uint256"},{"name":"protocol","type":"string","internalType":"string"},{"name":"receiptToken","type":"string","internalType":"string"},{"name":"chainId","type":"uint256","internalType":"uint256"}],"outputs":[],"stateMutability":"nonpayable"},{"type":"function","name":"totalDepositors","inputs":[],"outputs":[{"name":"","type":"uint256","internalType":"uint256"}],"stateMutability":"view"},{"type":"event","name":"PositionClosed","inputs":[{"name":"wallet","type":"address","indexed":true,"internalType":"address"},{"name":"timestamp","type":"uint256","indexed":false,"internalType":"uint256"}],"anonymous":false},{"type":"event","name":"PositionRecorded","inputs":[{"name":"wallet","type":"address","indexed":true,"internalType":"address"},{"name":"amountUSDC","type":"uint256","indexed":false,"internalType":"uint256"},{"name":"protocol","type":"string","indexed":false,"internalType":"string"},{"name":"chainId","type":"uint256","indexed":false,"internalType":"uint256"},{"name":"timestamp","type":"uint256","indexed":false,"internalType":"uint256"}],"anonymous":false},{"type":"event","name":"PositionUpdated","inputs":[{"name":"wallet","type":"address","indexed":true,"internalType":"address"},{"name":"oldProtocol","type":"string","indexed":false,"internalType":"string"},{"name":"newProtocol","type":"string","indexed":false,"internalType":"string"},{"name":"timestamp","type":"uint256","indexed":false,"internalType":"uint256"}],"anonymous":false}],"bytecode":{"object":"0x6080604052348015600e575f5ffd5b5061162c8061001c5f395ff3fe608060405234801561000f575f5ffd5b5060043610610086575f3560e01c806355f575101161005957806355f57510146101245780639a96e28814610159578063e4b2fb7914610175578063f2c16e6f146101a557610086565b806316c197391461008a5780632f86e2dd146100ba578063404f4e0d146100d6578063418f312814610106575b5f5ffd5b6100a4600480360381019061009f9190610c03565b6101d5565b6040516100b19190610d5d565b60405180910390f35b6100d460048036038101906100cf9190610c03565b610382565b005b6100f060048036038101906100eb9190610da7565b61046c565b6040516100fd9190610e9c565b60405180910390f35b61010e6105a4565b60405161011b9190610ecb565b60405180910390f35b61013e60048036038101906101399190610c03565b6105b0565b60405161015096959493929190610f3b565b60405180910390f35b610173600480360381019061016e9190611009565b6106ff565b005b61018f600480360381019061018a91906110c0565b610b15565b60405161019c91906110fa565b60405180910390f35b6101bf60048036038101906101ba9190610c03565b610b50565b6040516101cc9190611113565b60405180910390f35b6101dd610b6d565b5f5f8373ffffffffffffffffffffffffffffffffffffffff1673ffffffffffffffffffffffffffffffffffffffff1681526020019081526020015f206040518060c00160405290815f820154815260200160018201805461023d90611159565b80601f016020809104026020016040519081016040528092919081815260200182805461026990611159565b80156102b45780601f1061028b576101008083540402835291602001916102b4565b820191905f5260205f20905b81548152906001019060200180831161029757829003601f168201915b505050505081526020016002820180546102cd90611159565b80601f01602080910402602001604051908101604052809291908181526020018280546102f990611159565b80156103445780601f1061031b57610100808354040283529160200191610344565b820191905f5260205f20905b81548152906001019060200180831161032757829003601f168201915b5050505050815260200160038201548152602001600482015f9054906101000a900460ff161515151581526020016005820154815250509050919050565b5f5f5f8373ffffffffffffffffffffffffffffffffffffffff1673ffffffffffffffffffffffffffffffffffffffff1681526020019081526020015f206004015f6101000a81548160ff0219169083151502179055505f5f5f8373ffffffffffffffffffffffffffffffffffffffff1673ffffffffffffffffffffffffffffffffffffffff1681526020019081526020015f205f01819055508073ffffffffffffffffffffffffffffffffffffffff167fa9e0cdf27a7965d21573ebb808fbcb2c2a1cfd656e1ecf3f82549437b4740677426040516104619190610ecb565b60405180910390a250565b60605f828461047b91906111b6565b90506001805490508111156104935760018054905090505b5f84826104a091906111e9565b67ffffffffffffffff8111156104b9576104b861121c565b5b6040519080825280602002602001820160405280156104e75781602001602082028036833780820191505090505b5090505f8590505b82811015610598576001818154811061050b5761050a611249565b5b905f5260205f20015f9054906101000a900473ffffffffffffffffffffffffffffffffffffffff1682878361054091906111e9565b8151811061055157610550611249565b5b602002602001019073ffffffffffffffffffffffffffffffffffffffff16908173ffffffffffffffffffffffffffffffffffffffff168152505080806001019150506104ef565b50809250505092915050565b5f600180549050905090565b5f602052805f5260405f205f91509050805f0154908060010180546105d490611159565b80601f016020809104026020016040519081016040528092919081815260200182805461060090611159565b801561064b5780601f106106225761010080835404028352916020019161064b565b820191905f5260205f20905b81548152906001019060200180831161062e57829003601f168201915b50505050509080600201805461066090611159565b80601f016020809104026020016040519081016040528092919081815260200182805461068c90611159565b80156106d75780601f106106ae576101008083540402835291602001916106d7565b820191905f5260205f20905b8154815290600101906020018083116106ba57829003601f168201915b505050505090806003015490806004015f9054906101000a900460ff16908060050154905086565b5f5f5f8973ffffffffffffffffffffffffffffffffffffffff1673ffffffffffffffffffffffffffffffffffffffff1681526020019081526020015f20600101805461074a90611159565b80601f016020809104026020016040519081016040528092919081815260200182805461077690611159565b80156107c15780601f10610798576101008083540402835291602001916107c1565b820191905f5260205f20905b8154815290600101906020018083116107a457829003601f168201915b505050505090506040518060c0016040528088815260200187878080601f0160208091040260200160405190810160405280939291908181526020018383808284375f81840152601f19601f82011690508083019250505050505050815260200185858080601f0160208091040260200160405190810160405280939291908181526020018383808284375f81840152601f19601f820116905080830192505050505050508152602001428152602001600115158152602001838152505f5f8a73ffffffffffffffffffffffffffffffffffffffff1673ffffffffffffffffffffffffffffffffffffffff1681526020019081526020015f205f820151815f015560208201518160010190816108d79190611416565b5060408201518160020190816108ed9190611416565b50606082015181600301556080820151816004015f6101000a81548160ff02191690831515021790555060a0820151816005015590505060025f8973ffffffffffffffffffffffffffffffffffffffff1673ffffffffffffffffffffffffffffffffffffffff1681526020019081526020015f205f9054906101000a900460ff16610a2857600160025f8a73ffffffffffffffffffffffffffffffffffffffff1673ffffffffffffffffffffffffffffffffffffffff1681526020019081526020015f205f6101000a81548160ff021916908315150217905550600188908060018154018082558091505060019003905f5260205f20015f9091909190916101000a81548173ffffffffffffffffffffffffffffffffffffffff021916908373ffffffffffffffffffffffffffffffffffffffff1602179055505b5f8151118015610a5657508585604051610a43929190611521565b6040518091039020818051906020012014155b15610ab4578773ffffffffffffffffffffffffffffffffffffffff167fc468c6bf72d40fa4e689d371a6e68d0898f7dcb1897f32160d038f23850799dd82888842604051610aa79493929190611565565b60405180910390a2610b0b565b8773ffffffffffffffffffffffffffffffffffffffff167f328d8c5476d2153fb6f587387c72c6874ff8a9bdb244ba8807594e76d330d88f8888888642604051610b029594939291906115aa565b60405180910390a25b5050505050505050565b60018181548110610b24575f80fd5b905f5260205f20015f915054906101000a900473ffffffffffffffffffffffffffffffffffffffff1681565b6002602052805f5260405f205f915054906101000a900460ff1681565b6040518060c001604052805f815260200160608152602001606081526020015f81526020015f151581526020015f81525090565b5f5ffd5b5f5ffd5b5f73ffffffffffffffffffffffffffffffffffffffff82169050919050565b5f610bd282610ba9565b9050919050565b610be281610bc8565b8114610bec575f5ffd5b50565b5f81359050610bfd81610bd9565b92915050565b5f60208284031215610c1857610c17610ba1565b5b5f610c2584828501610bef565b91505092915050565b5f819050919050565b610c4081610c2e565b82525050565b5f81519050919050565b5f82825260208201905092915050565b8281835e5f83830152505050565b5f601f19601f8301169050919050565b5f610c8882610c46565b610c928185610c50565b9350610ca2818560208601610c60565b610cab81610c6e565b840191505092915050565b5f8115159050919050565b610cca81610cb6565b82525050565b5f60c083015f830151610ce55f860182610c37565b5060208301518482036020860152610cfd8282610c7e565b91505060408301518482036040860152610d178282610c7e565b9150506060830151610d2c6060860182610c37565b506080830151610d3f6080860182610cc1565b5060a0830151610d5260a0860182610c37565b508091505092915050565b5f6020820190508181035f830152610d758184610cd0565b905092915050565b610d8681610c2e565b8114610d90575f5ffd5b50565b5f81359050610da181610d7d565b92915050565b5f5f60408385031215610dbd57610dbc610ba1565b5b5f610dca85828601610d93565b9250506020610ddb85828601610d93565b9150509250929050565b5f81519050919050565b5f82825260208201905092915050565b5f819050602082019050919050565b610e1781610bc8565b82525050565b5f610e288383610e0e565b60208301905092915050565b5f602082019050919050565b5f610e4a82610de5565b610e548185610def565b9350610e5f83610dff565b805f5b83811015610e8f578151610e768882610e1d565b9750610e8183610e34565b925050600181019050610e62565b5085935050505092915050565b5f6020820190508181035f830152610eb48184610e40565b905092915050565b610ec581610c2e565b82525050565b5f602082019050610ede5f830184610ebc565b92915050565b5f82825260208201905092915050565b5f610efe82610c46565b610f088185610ee4565b9350610f18818560208601610c60565b610f2181610c6e565b840191505092915050565b610f3581610cb6565b82525050565b5f60c082019050610f4e5f830189610ebc565b8181036020830152610f608188610ef4565b90508181036040830152610f748187610ef4565b9050610f836060830186610ebc565b610f906080830185610f2c565b610f9d60a0830184610ebc565b979650505050505050565b5f5ffd5b5f5ffd5b5f5ffd5b5f5f83601f840112610fc957610fc8610fa8565b5b8235905067ffffffffffffffff811115610fe657610fe5610fac565b5b60208301915083600182028301111561100257611001610fb0565b5b9250929050565b5f5f5f5f5f5f5f60a0888a03121561102457611023610ba1565b5b5f6110318a828b01610bef565b97505060206110428a828b01610d93565b965050604088013567ffffffffffffffff81111561106357611062610ba5565b5b61106f8a828b01610fb4565b9550955050606088013567ffffffffffffffff81111561109257611091610ba5565b5b61109e8a828b01610fb4565b935093505060806110b18a828b01610d93565b91505092959891949750929550565b5f602082840312156110d5576110d4610ba1565b5b5f6110e284828501610d93565b91505092915050565b6110f481610bc8565b82525050565b5f60208201905061110d5f8301846110eb565b92915050565b5f6020820190506111265f830184610f2c565b92915050565b7f4e487b71000000000000000000000000000000000000000000000000000000005f52602260045260245ffd5b5f600282049050600182168061117057607f821691505b6020821081036111835761118261112c565b5b50919050565b7f4e487b71000000000000000000000000000000000000000000000000000000005f52601160045260245ffd5b5f6111c082610c2e565b91506111cb83610c2e565b92508282019050808211156111e3576111e2611189565b5b92915050565b5f6111f382610c2e565b91506111fe83610c2e565b925082820390508181111561121657611215611189565b5b92915050565b7f4e487b71000000000000000000000000000000000000000000000000000000005f52604160045260245ffd5b7f4e487b71000000000000000000000000000000000000000000000000000000005f52603260045260245ffd5b5f819050815f5260205f209050919050565b5f6020601f8301049050919050565b5f82821b905092915050565b5f600883026112d27fffffffffffffffffffffffffffffffffffffffffffffffffffffffffffffffff82611297565b6112dc8683611297565b95508019841693508086168417925050509392505050565b5f819050919050565b5f61131761131261130d84610c2e565b6112f4565b610c2e565b9050919050565b5f819050919050565b611330836112fd565b61134461133c8261131e565b8484546112a3565b825550505050565b5f5f905090565b61135b61134c565b611366818484611327565b505050565b5b818110156113895761137e5f82611353565b60018101905061136c565b5050565b601f8211156113ce5761139f81611276565b6113a884611288565b810160208510156113b7578190505b6113cb6113c385611288565b83018261136b565b50505b505050565b5f82821c905092915050565b5f6113ee5f19846008026113d3565b1980831691505092915050565b5f61140683836113df565b9150826002028217905092915050565b61141f82610c46565b67ffffffffffffffff8111156114385761143761121c565b5b6114428254611159565b61144d82828561138d565b5f60209050601f83116001811461147e575f841561146c578287015190505b61147685826113fb565b8655506114dd565b601f19841661148c86611276565b5f5b828110156114b35784890151825560018201915060208501945060208101905061148e565b868310156114d057848901516114cc601f8916826113df565b8355505b6001600288020188555050505b505050505050565b5f81905092915050565b828183375f83830152505050565b5f61150883856114e5565b93506115158385846114ef565b82840190509392505050565b5f61152d8284866114fd565b91508190509392505050565b5f6115448385610ee4565b93506115518385846114ef565b61155a83610c6e565b840190509392505050565b5f6060820190508181035f83015261157d8187610ef4565b90508181036020830152611592818587611539565b90506115a16040830184610ebc565b95945050505050565b5f6080820190506115bd5f830188610ebc565b81810360208301526115d0818688611539565b90506115df6040830185610ebc565b6115ec6060830184610ebc565b969550505050505056fea2646970667358221220a54f0d83229c4c26bcb1583f6c9b60dac6f49728858d2ec0ada8c325ca7cf09c64736f6c634300081e0033","linkReferences":{}},"methodIdentifiers":{"closePosition(address)":"2f86e2dd","depositors(uint256)":"e4b2fb79","getDepositors(uint256,uint256)":"404f4e0d","getPosition(address)":"16c19739","hasDeposited(address)":"f2c16e6f","positions(address)":"55f57510","recordPosition(address,uint256,string,string,uint256)":"9a96e288","totalDepositors()":"418f3128"},"id":2}