{"abi":[{"type":"function","name":"enter","inputs":[{"name":"wallet","type":"address","internalType":"address"},{"name":"poolId","type":"string","internalType":"string"}],"outputs":[],"stateMutability":"nonpayable"},{"type":"function","name":"exit","inputs":[{"name":"wallet","type":"address","internalType":"address"},{"name":"poolId","type":"string","internalType":"string"}],"outputs":[],"stateMutability":"nonpayable"},{"type":"function","name":"getAllPools","inputs":[],"outputs":[{"name":"","type":"string[]","internalType":"string[]"}],"stateMutability":"view"},{"type":"function","name":"getBulkCounts","inputs":[{"name":"poolIds","type":"string[]","internalType":"string[]"}],"outputs":[{"name":"counts","type":"uint256[]","internalType":"uint256[]"}],"stateMutability":"view"},{"type":"function","name":"getHumanCount","inputs":[{"name":"poolId","type":"string","internalType":"string"}],"outputs":[{"name":"","type":"uint256","internalType":"uint256"}],"stateMutability":"view"},{"type":"function","name":"getWalletPools","inputs":[{"name":"wallet","type":"address","internalType":"address"}],"outputs":[{"name":"","type":"string[]","internalType":"string[]"}],"stateMutability":"view"},{"type":"function","name":"humanCount","inputs":[{"name":"","type":"string","internalType":"string"}],"outputs":[{"name":"","type":"uint256","internalType":"uint256"}],"stateMutability":"view"},{"type":"function","name":"isInPool","inputs":[{"name":"","type":"address","internalType":"address"},{"name":"","type":"string","internalType":"string"}],"outputs":[{"name":"","type":"bool","internalType":"bool"}],"stateMutability":"view"},{"type":"function","name":"isWalletInPool","inputs":[{"name":"wallet","type":"address","internalType":"address"},{"name":"poolId","type":"string","internalType":"string"}],"outputs":[{"name":"","type":"bool","internalType":"bool"}],"stateMutability":"view"},{"type":"function","name":"poolExists","inputs":[{"name":"","type":"string","internalType":"string"}],"outputs":[{"name":"","type":"bool","internalType":"bool"}],"stateMutability":"view"},{"type":"function","name":"pools","inputs":[{"name":"","type":"uint256","internalType":"uint256"}],"outputs":[{"name":"","type":"string","internalType":"string"}],"stateMutability":"view"},{"type":"function","name":"rebalance","inputs":[{"name":"wallet","type":"address","internalType":"address"},{"name":"fromPool","type":"string","internalType":"string"},{"name":"toPool","type":"string","internalType":"string"}],"outputs":[],"stateMutability":"nonpayable"},{"type":"function","name":"totalEverDeposited","inputs":[{"name":"","type":"string","internalType":"string"}],"outputs":[{"name":"","type":"uint256","internalType":"uint256"}],"stateMutability":"view"},{"type":"function","name":"totalPools","inputs":[],"outputs":[{"name":"","type":"uint256","internalType":"uint256"}],"stateMutability":"view"},{"type":"function","name":"walletPools","inputs":[{"name":"","type":"address","internalType":"address"},{"name":"","type":"uint256","internalType":"uint256"}],"outputs":[{"name":"","type":"string","internalType":"string"}],"stateMutability":"view"},{"type":"event","name":"HumanEntered","inputs":[{"name":"wallet","type":"address","indexed":true,"internalType":"address"},{"name":"pool","type":"string","indexed":false,"internalType":"string"},{"name":"newCount","type":"uint256","indexed":false,"internalType":"uint256"},{"name":"timestamp","type":"uint256","indexed":false,"internalType":"uint256"}],"anonymous":false},{"type":"event","name":"HumanExited","inputs":[{"name":"wallet","type":"address","indexed":true,"internalType":"address"},{"name":"pool","type":"string","indexed":false,"internalType":"string"},{"name":"newCount","type":"uint256","indexed":false,"internalType":"uint256"},{"name":"timestamp","type":"uint256","indexed":false,"internalType":"uint256"}],"anonymous":false},{"type":"event","name":"PoolRegistered","inputs":[{"name":"pool","type":"string","indexed":false,"internalType":"string"},{"name":"timestamp","type":"uint256","indexed":false,"internalType":"uint256"}],"anonymous":false},{"type":"error","name":"AlreadyInPool","inputs":[]},{"type":"error","name":"NotInPool","inputs":[]}],"bytecode":{"object":"0x6080604052348015600e575f5ffd5b506120748061001c5f395ff3fe608060405234801561000f575f5ffd5b50600436106100f3575f3560e01c8063830ddbf811610095578063cf5f0fc811610064578063cf5f0fc8146102cd578063d1df91e7146102e9578063d88ff1f414610319578063e095ae0f14610337576100f3565b8063830ddbf81461021f5780639b90559e1461024f578063ab3c7e521461027f578063ac4afa381461029d576100f3565b80633542c886116100d15780633542c8861461017357806347df9bf1146101a35780634a8f0dab146101d35780634aeb0826146101ef576100f3565b80631148c2e4146100f75780631d5672561461012757806324aa4cac14610157575b5f5ffd5b610111600480360381019061010c91906110a6565b610367565b60405161011e9190611154565b60405180910390f35b610141600480360381019061013c91906111d5565b610418565b60405161014e919061124c565b60405180910390f35b610171600480360381019061016c91906111d5565b61048a565b005b61018d6004803603810190610188919061138d565b6107a1565b60405161019a91906113e3565b60405180910390f35b6101bd60048036038101906101b8919061138d565b6107cd565b6040516101ca919061124c565b60405180910390f35b6101ed60048036038101906101e891906113fc565b610802565b005b6102096004803603810190610204919061148d565b61081f565b60405161021691906113e3565b60405180910390f35b610239600480360381019061023491906114d8565b610848565b604051610246919061124c565b60405180910390f35b61026960048036038101906102649190611587565b61088a565b6040516102769190611689565b60405180910390f35b610287610960565b60405161029491906113e3565b60405180910390f35b6102b760048036038101906102b291906116a9565b61096c565b6040516102c49190611154565b60405180910390f35b6102e760048036038101906102e291906111d5565b610a12565b005b61030360048036038101906102fe919061138d565b610cca565b60405161031091906113e3565b60405180910390f35b610321610cf7565b60405161032e91906117d7565b60405180910390f35b610351600480360381019061034c91906117f7565b610dcb565b60405161035e91906117d7565b60405180910390f35b6005602052815f5260405f208181548110610380575f80fd5b905f5260205f20015f915091505080546103999061184f565b80601f01602080910402602001604051908101604052809291908181526020018280546103c59061184f565b80156104105780601f106103e757610100808354040283529160200191610410565b820191905f5260205f20905b8154815290600101906020018083116103f357829003601f168201915b505050505081565b5f60025f8573ffffffffffffffffffffffffffffffffffffffff1673ffffffffffffffffffffffffffffffffffffffff1681526020019081526020015f2083836040516104669291906118ad565b90815260200160405180910390205f9054906101000a900460ff1690509392505050565b60025f8473ffffffffffffffffffffffffffffffffffffffff1673ffffffffffffffffffffffffffffffffffffffff1681526020019081526020015f2082826040516104d79291906118ad565b90815260200160405180910390205f9054906101000a900460ff16610528576040517f6bad456100000000000000000000000000000000000000000000000000000000815260040160405180910390fd5b5f60025f8573ffffffffffffffffffffffffffffffffffffffff1673ffffffffffffffffffffffffffffffffffffffff1681526020019081526020015f2083836040516105769291906118ad565b90815260200160405180910390205f6101000a81548160ff0219169083151502179055505f5f83836040516105ac9291906118ad565b90815260200160405180910390205411156105f85760015f83836040516105d49291906118ad565b90815260200160405180910390205f8282546105f091906118f2565b925050819055505b5f60055f8573ffffffffffffffffffffffffffffffffffffffff1673ffffffffffffffffffffffffffffffffffffffff1681526020019081526020015f2090505f5f90505b8180549050811015610727578383604051610659929190611953565b60405180910390208282815481106106745761067361196b565b5b905f5260205f20016040516106899190611a2a565b60405180910390200361071a5781600183805490506106a891906118f2565b815481106106b9576106b861196b565b5b905f5260205f20018282815481106106d4576106d361196b565b5b905f5260205f200190816106e89190611c07565b50818054806106fa576106f9611cec565b5b600190038181905f5260205f20015f6107139190610fb0565b9055610727565b808060010191505061063d565b508373ffffffffffffffffffffffffffffffffffffffff167fdf64f985fb14907a369dc6950fd7e23b71cd23a7105e0fdc68e9e4bdda66158c84845f87876040516107739291906118ad565b908152602001604051809103902054426040516107939493929190611d45565b60405180910390a250505050565b5f818051602081018201805184825260208301602085012081835280955050505050505f915090505481565b6004818051602081018201805184825260208301602085012081835280955050505050505f915054906101000a900460ff1681565b61080d85858561048a565b610818858383610a12565b5050505050565b5f5f83836040516108319291906118ad565b908152602001604051809103902054905092915050565b6002602052815f5260405f20818051602081018201805184825260208301602085012081835280955050505050505f915091509054906101000a900460ff1681565b60608282905067ffffffffffffffff8111156108a9576108a8611269565b5b6040519080825280602002602001820160405280156108d75781602001602082028036833780820191505090505b5090505f5f90505b83839050811015610959575f8484838181106108fe576108fd61196b565b5b90506020028101906109109190611d8f565b60405161091e9291906118ad565b9081526020016040518091039020548282815181106109405761093f61196b565b5b60200260200101818152505080806001019150506108df565b5092915050565b5f600380549050905090565b6003818154811061097b575f80fd5b905f5260205f20015f9150905080546109939061184f565b80601f01602080910402602001604051908101604052809291908181526020018280546109bf9061184f565b8015610a0a5780601f106109e157610100808354040283529160200191610a0a565b820191905f5260205f20905b8154815290600101906020018083116109ed57829003601f168201915b505050505081565b60025f8473ffffffffffffffffffffffffffffffffffffffff1673ffffffffffffffffffffffffffffffffffffffff1681526020019081526020015f208282604051610a5f9291906118ad565b90815260200160405180910390205f9054906101000a900460ff1615610ab1576040517f309e521600000000000000000000000000000000000000000000000000000000815260040160405180910390fd5b610afd82828080601f0160208091040260200160405190810160405280939291908181526020018383808284375f81840152601f19601f82011690508083019250505050505050610edc565b600160025f8573ffffffffffffffffffffffffffffffffffffffff1673ffffffffffffffffffffffffffffffffffffffff1681526020019081526020015f208383604051610b4c9291906118ad565b90815260200160405180910390205f6101000a81548160ff02191690831515021790555060015f8383604051610b839291906118ad565b90815260200160405180910390205f828254610b9f9190611df1565b925050819055506001808383604051610bb99291906118ad565b90815260200160405180910390205f828254610bd59190611df1565b9250508190555060055f8473ffffffffffffffffffffffffffffffffffffffff1673ffffffffffffffffffffffffffffffffffffffff1681526020019081526020015f20828290918060018154018082558091505060019003905f5260205f20015f909192909192909192909192509182610c51929190611e2e565b508273ffffffffffffffffffffffffffffffffffffffff167f743d46f93044b15158c62e15b5fe225656938d83e05953013c65d2839d2136cf83835f8686604051610c9d9291906118ad565b90815260200160405180910390205442604051610cbd9493929190611d45565b60405180910390a2505050565b6001818051602081018201805184825260208301602085012081835280955050505050505f915090505481565b60606003805480602002602001604051908101604052809291908181526020015f905b82821015610dc2578382905f5260205f20018054610d379061184f565b80601f0160208091040260200160405190810160405280929190818152602001828054610d639061184f565b8015610dae5780601f10610d8557610100808354040283529160200191610dae565b820191905f5260205f20905b815481529060010190602001808311610d9157829003601f168201915b505050505081526020019060010190610d1a565b50505050905090565b606060055f8373ffffffffffffffffffffffffffffffffffffffff1673ffffffffffffffffffffffffffffffffffffffff1681526020019081526020015f20805480602002602001604051908101604052809291908181526020015f905b82821015610ed1578382905f5260205f20018054610e469061184f565b80601f0160208091040260200160405190810160405280929190818152602001828054610e729061184f565b8015610ebd5780601f10610e9457610100808354040283529160200191610ebd565b820191905f5260205f20905b815481529060010190602001808311610ea057829003601f168201915b505050505081526020019060010190610e29565b505050509050919050565b600481604051610eec9190611f2b565b90815260200160405180910390205f9054906101000a900460ff16610fad576001600482604051610f1d9190611f2b565b90815260200160405180910390205f6101000a81548160ff021916908315150217905550600381908060018154018082558091505060019003905f5260205f20015f909190919091509081610f729190611f41565b507f73682748698296372afd0ec0250cb34e270b2f11465b589d173d6aeeb4f61fc08142604051610fa4929190612010565b60405180910390a15b50565b508054610fbc9061184f565b5f825580601f10610fcd5750610fea565b601f0160209004905f5260205f2090810190610fe99190610fed565b5b50565b5b80821115611004575f815f905550600101610fee565b5090565b5f604051905090565b5f5ffd5b5f5ffd5b5f73ffffffffffffffffffffffffffffffffffffffff82169050919050565b5f61104282611019565b9050919050565b61105281611038565b811461105c575f5ffd5b50565b5f8135905061106d81611049565b92915050565b5f819050919050565b61108581611073565b811461108f575f5ffd5b50565b5f813590506110a08161107c565b92915050565b5f5f604083850312156110bc576110bb611011565b5b5f6110c98582860161105f565b92505060206110da85828601611092565b9150509250929050565b5f81519050919050565b5f82825260208201905092915050565b8281835e5f83830152505050565b5f601f19601f8301169050919050565b5f611126826110e4565b61113081856110ee565b93506111408185602086016110fe565b6111498161110c565b840191505092915050565b5f6020820190508181035f83015261116c818461111c565b905092915050565b5f5ffd5b5f5ffd5b5f5ffd5b5f5f83601f84011261119557611194611174565b5b8235905067ffffffffffffffff8111156111b2576111b1611178565b5b6020830191508360018202830111156111ce576111cd61117c565b5b9250929050565b5f5f5f604084860312156111ec576111eb611011565b5b5f6111f98682870161105f565b935050602084013567ffffffffffffffff81111561121a57611219611015565b5b61122686828701611180565b92509250509250925092565b5f8115159050919050565b61124681611232565b82525050565b5f60208201905061125f5f83018461123d565b92915050565b5f5ffd5b7f4e487b71000000000000000000000000000000000000000000000000000000005f52604160045260245ffd5b61129f8261110c565b810181811067ffffffffffffffff821117156112be576112bd611269565b5b80604052505050565b5f6112d0611008565b90506112dc8282611296565b919050565b5f67ffffffffffffffff8211156112fb576112fa611269565b5b6113048261110c565b9050602081019050919050565b828183375f83830152505050565b5f61133161132c846112e1565b6112c7565b90508281526020810184848401111561134d5761134c611265565b5b611358848285611311565b509392505050565b5f82601f83011261137457611373611174565b5b813561138484826020860161131f565b91505092915050565b5f602082840312156113a2576113a1611011565b5b5f82013567ffffffffffffffff8111156113bf576113be611015565b5b6113cb84828501611360565b91505092915050565b6113dd81611073565b82525050565b5f6020820190506113f65f8301846113d4565b92915050565b5f5f5f5f5f6060868803121561141557611414611011565b5b5f6114228882890161105f565b955050602086013567ffffffffffffffff81111561144357611442611015565b5b61144f88828901611180565b9450945050604086013567ffffffffffffffff81111561147257611471611015565b5b61147e88828901611180565b92509250509295509295909350565b5f5f602083850312156114a3576114a2611011565b5b5f83013567ffffffffffffffff8111156114c0576114bf611015565b5b6114cc85828601611180565b92509250509250929050565b5f5f604083850312156114ee576114ed611011565b5b5f6114fb8582860161105f565b925050602083013567ffffffffffffffff81111561151c5761151b611015565b5b61152885828601611360565b9150509250929050565b5f5f83601f84011261154757611546611174565b5b8235905067ffffffffffffffff81111561156457611563611178565b5b6020830191508360208202830111156115805761157f61117c565b5b9250929050565b5f5f6020838503121561159d5761159c611011565b5b5f83013567ffffffffffffffff8111156115ba576115b9611015565b5b6115c685828601611532565b92509250509250929050565b5f81519050919050565b5f82825260208201905092915050565b5f819050602082019050919050565b61160481611073565b82525050565b5f61161583836115fb565b60208301905092915050565b5f602082019050919050565b5f611637826115d2565b61164181856115dc565b935061164c836115ec565b805f5b8381101561167c578151611663888261160a565b975061166e83611621565b92505060018101905061164f565b5085935050505092915050565b5f6020820190508181035f8301526116a1818461162d565b905092915050565b5f602082840312156116be576116bd611011565b5b5f6116cb84828501611092565b91505092915050565b5f81519050919050565b5f82825260208201905092915050565b5f819050602082019050919050565b5f82825260208201905092915050565b5f611717826110e4565b61172181856116fd565b93506117318185602086016110fe565b61173a8161110c565b840191505092915050565b5f611750838361170d565b905092915050565b5f602082019050919050565b5f61176e826116d4565b61177881856116de565b93508360208202850161178a856116ee565b805f5b858110156117c557848403895281516117a68582611745565b94506117b183611758565b925060208a0199505060018101905061178d565b50829750879550505050505092915050565b5f6020820190508181035f8301526117ef8184611764565b905092915050565b5f6020828403121561180c5761180b611011565b5b5f6118198482850161105f565b91505092915050565b7f4e487b71000000000000000000000000000000000000000000000000000000005f52602260045260245ffd5b5f600282049050600182168061186657607f821691505b60208210810361187957611878611822565b5b50919050565b5f81905092915050565b5f611894838561187f565b93506118a1838584611311565b82840190509392505050565b5f6118b9828486611889565b91508190509392505050565b7f4e487b71000000000000000000000000000000000000000000000000000000005f52601160045260245ffd5b5f6118fc82611073565b915061190783611073565b925082820390508181111561191f5761191e6118c5565b5b92915050565b5f81905092915050565b5f61193a8385611925565b9350611947838584611311565b82840190509392505050565b5f61195f82848661192f565b91508190509392505050565b7f4e487b71000000000000000000000000000000000000000000000000000000005f52603260045260245ffd5b5f819050815f5260205f209050919050565b5f81546119b68161184f565b6119c08186611925565b9450600182165f81146119da57600181146119ef57611a21565b60ff1983168652811515820286019350611a21565b6119f885611998565b5f5b83811015611a19578154818901526001820191506020810190506119fa565b838801955050505b50505092915050565b5f611a3582846119aa565b915081905092915050565b5f81549050611a4e8161184f565b9050919050565b5f819050815f5260205f209050919050565b5f819050815f5260205f209050919050565b5f6020601f8301049050919050565b5f82821b905092915050565b5f60088302611ac37fffffffffffffffffffffffffffffffffffffffffffffffffffffffffffffffff82611a88565b611acd8683611a88565b95508019841693508086168417925050509392505050565b5f819050919050565b5f611b08611b03611afe84611073565b611ae5565b611073565b9050919050565b5f819050919050565b611b2183611aee565b611b35611b2d82611b0f565b848454611a94565b825550505050565b5f5f905090565b611b4c611b3d565b611b57818484611b18565b505050565b5b81811015611b7a57611b6f5f82611b44565b600181019050611b5d565b5050565b601f821115611bbf57611b9081611a55565b611b9984611a79565b81016020851015611ba8578190505b611bbc611bb485611a79565b830182611b5c565b50505b505050565b5f82821c905092915050565b5f611bdf5f1984600802611bc4565b1980831691505092915050565b5f611bf78383611bd0565b9150826002028217905092915050565b818103611c15575050611cea565b611c1e82611a40565b67ffffffffffffffff811115611c3757611c36611269565b5b611c41825461184f565b611c4c828285611b7e565b5f601f831160018114611c79575f8415611c67578287015490505b611c718582611bec565b865550611ce3565b601f198416611c8787611a67565b9650611c9286611a55565b5f5b82811015611cb957848901548255600182019150600185019450602081019050611c94565b86831015611cd65784890154611cd2601f891682611bd0565b8355505b6001600288020188555050505b5050505050505b565b7f4e487b71000000000000000000000000000000000000000000000000000000005f52603160045260245ffd5b5f611d2483856110ee565b9350611d31838584611311565b611d3a8361110c565b840190509392505050565b5f6060820190508181035f830152611d5e818688611d19565b9050611d6d60208301856113d4565b611d7a60408301846113d4565b95945050505050565b5f5ffd5b5f5ffd5b5f5ffd5b5f5f83356001602003843603038112611dab57611daa611d83565b5b80840192508235915067ffffffffffffffff821115611dcd57611dcc611d87565b5b602083019250600182023603831315611de957611de8611d8b565b5b509250929050565b5f611dfb82611073565b9150611e0683611073565b9250828201905080821115611e1e57611e1d6118c5565b5b92915050565b5f82905092915050565b611e388383611e24565b67ffffffffffffffff811115611e5157611e50611269565b5b611e5b825461184f565b611e66828285611b7e565b5f601f831160018114611e93575f8415611e81578287013590505b611e8b8582611bec565b865550611ef2565b601f198416611ea186611a55565b5f5b82811015611ec857848901358255600182019150602085019450602081019050611ea3565b86831015611ee55784890135611ee1601f891682611bd0565b8355505b6001600288020188555050505b50505050505050565b5f611f05826110e4565b611f0f818561187f565b9350611f1f8185602086016110fe565b80840191505092915050565b5f611f368284611efb565b915081905092915050565b611f4a826110e4565b67ffffffffffffffff811115611f6357611f62611269565b5b611f6d825461184f565b611f78828285611b7e565b5f60209050601f831160018114611fa9575f8415611f97578287015190505b611fa18582611bec565b865550612008565b601f198416611fb786611a55565b5f5b82811015611fde57848901518255600182019150602085019450602081019050611fb9565b86831015611ffb5784890151611ff7601f891682611bd0565b8355505b6001600288020188555050505b505050505050565b5f6040820190508181035f830152612028818561111c565b905061203760208301846113d4565b939250505056fea26469706673582212209d8b04f3f05756e1fff15aee613f881875be474cb59b4d29730b4314e0f57a7664736f6c634300081e0033","linkReferences":{}},"methodIdentifiers":{"enter(address,string)":"cf5f0fc8","exit(address,string)":"24aa4cac","getAllPools()":"d88ff1f4","getBulkCounts(string[])":"9b90559e","getHumanCount(string)":"4aeb0826","getWalletPools(address)":"e095ae0f","humanCount(string)":"3542c886","isInPool(address,string)":"830ddbf8","isWalletInPool(address,string)":"1d567256","poolExists(string)":"47df9bf1","pools(uint256)":"ac4afa38","rebalance(address,string,string)":"4a8f0dab","totalEverDeposited(string)":"d1df91e7","totalPools()":"ab3c7e52","walletPools(address,uint256)":"1148c2e4"},"id":0}