{"abi":[{"type":"function","name":"deactivateMandate","inputs":[{"name":"wallet","type":"address","internalType":"address"}],"outputs":[],"stateMutability":"nonpayable"},{"type":"function","name":"getMandate","inputs":[{"name":"wallet","type":"address","internalType":"address"}],"outputs":[{"name":"","type":"tuple","internalType":"struct MandateStorage.Mandate","components":[{"name":"minApyBps","type":"uint256","internalType":"uint256"},{"name":"active","type":"bool","internalType":"bool"},{"name":"createdAt","type":"uint256","internalType":"uint256"},{"name":"lastCheckedAt","type":"uint256","internalType":"uint256"},{"name":"preferredChains","type":"string","internalType":"string"},{"name":"excludeProtocols","type":"string","internalType":"string"}]}],"stateMutability":"view"},{"type":"function","name":"getMandateHolders","inputs":[{"name":"offset","type":"uint256","internalType":"uint256"},{"name":"limit","type":"uint256","internalType":"uint256"}],"outputs":[{"name":"","type":"address[]","internalType":"address[]"}],"stateMutability":"view"},{"type":"function","name":"getMandateThreshold","inputs":[{"name":"wallet","type":"address","internalType":"address"}],"outputs":[{"name":"active","type":"bool","internalType":"bool"},{"name":"minApyBps","type":"uint256","internalType":"uint256"}],"stateMutability":"view"},{"type":"function","name":"hasMandateEntry","inputs":[{"name":"","type":"address","internalType":"address"}],"outputs":[{"name":"","type":"bool","internalType":"bool"}],"stateMutability":"view"},{"type":"function","name":"mandateHolders","inputs":[{"name":"","type":"uint256","internalType":"uint256"}],"outputs":[{"name":"","type":"address","internalType":"address"}],"stateMutability":"view"},{"type":"function","name":"mandates","inputs":[{"name":"","type":"address","internalType":"address"}],"outputs":[{"name":"minApyBps","type":"uint256","internalType":"uint256"},{"name":"active","type":"bool","internalType":"bool"},{"name":"createdAt","type":"uint256","internalType":"uint256"},{"name":"lastCheckedAt","type":"uint256","internalType":"uint256"},{"name":"preferredChains","type":"string","internalType":"string"},{"name":"excludeProtocols","type":"string","internalType":"string"}],"stateMutability":"view"},{"type":"function","name":"recordMandateCheck","inputs":[{"name":"wallet","type":"address","internalType":"address"},{"name":"currentApyBps","type":"uint256","internalType":"uint256"},{"name":"rebalanceTriggered","type":"bool","internalType":"bool"}],"outputs":[],"stateMutability":"nonpayable"},{"type":"function","name":"setMandate","inputs":[{"name":"wallet","type":"address","internalType":"address"},{"name":"minApyBps","type":"uint256","internalType":"uint256"},{"name":"preferredChains","type":"string","internalType":"string"},{"name":"excludeProtocols","type":"string","internalType":"string"}],"outputs":[],"stateMutability":"nonpayable"},{"type":"function","name":"totalMandates","inputs":[],"outputs":[{"name":"","type":"uint256","internalType":"uint256"}],"stateMutability":"view"},{"type":"event","name":"MandateChecked","inputs":[{"name":"wallet","type":"address","indexed":true,"internalType":"address"},{"name":"currentApyBps","type":"uint256","indexed":false,"internalType":"uint256"},{"name":"rebalanceTriggered","type":"bool","indexed":false,"internalType":"bool"},{"name":"timestamp","type":"uint256","indexed":false,"internalType":"uint256"}],"anonymous":false},{"type":"event","name":"MandateDeactivated","inputs":[{"name":"wallet","type":"address","indexed":true,"internalType":"address"},{"name":"timestamp","type":"uint256","indexed":false,"internalType":"uint256"}],"anonymous":false},{"type":"event","name":"MandateSet","inputs":[{"name":"wallet","type":"address","indexed":true,"internalType":"address"},{"name":"minApyBps","type":"uint256","indexed":false,"internalType":"uint256"},{"name":"timestamp","type":"uint256","indexed":false,"internalType":"uint256"}],"anonymous":false}],"bytecode":{"object":"0x6080604052348015600e575f5ffd5b506117178061001c5f395ff3fe608060405234801561000f575f5ffd5b506004361061009c575f3560e01c806366f38afe1161006457806366f38afe14610181578063a85d8623146101b2578063c79ef091146101ce578063eb88134c146101ea578063f2895ff21461021a5761009c565b806313672b8e146100a057806330bee5d0146100d05780633eb57ebb146101005780635d5b74511461013057806360d17a6e1461014c575b5f5ffd5b6100ba60048036038101906100b59190610d16565b610238565b6040516100c79190610d5b565b60405180910390f35b6100ea60048036038101906100e59190610d16565b610255565b6040516100f79190610e98565b60405180910390f35b61011a60048036038101906101159190610ee2565b610402565b6040516101279190610f1c565b60405180910390f35b61014a60048036038101906101459190610d16565b61043d565b005b61016660048036038101906101619190610d16565b6104e4565b60405161017896959493929190610f8c565b60405180910390f35b61019b60048036038101906101969190610d16565b610633565b6040516101a9929190610ff9565b60405180910390f35b6101cc60048036038101906101c7919061104a565b6107e9565b005b6101e860048036038101906101e391906110fb565b610884565b005b61020460048036038101906101ff919061119e565b610b3c565b6040516102119190611293565b60405180910390f35b610222610c74565b60405161022f91906112b3565b60405180910390f35b6002602052805f5260405f205f915054906101000a900460ff1681565b61025d610c80565b5f5f8373ffffffffffffffffffffffffffffffffffffffff1673ffffffffffffffffffffffffffffffffffffffff1681526020019081526020015f206040518060c00160405290815f8201548152602001600182015f9054906101000a900460ff1615151515815260200160028201548152602001600382015481526020016004820180546102eb906112f9565b80601f0160208091040260200160405190810160405280929190818152602001828054610317906112f9565b80156103625780601f1061033957610100808354040283529160200191610362565b820191905f5260205f20905b81548152906001019060200180831161034557829003601f168201915b5050505050815260200160058201805461037b906112f9565b80601f01602080910402602001604051908101604052809291908181526020018280546103a7906112f9565b80156103f25780601f106103c9576101008083540402835291602001916103f2565b820191905f5260205f20905b8154815290600101906020018083116103d557829003601f168201915b5050505050815250509050919050565b60018181548110610411575f80fd5b905f5260205f20015f915054906101000a900473ffffffffffffffffffffffffffffffffffffffff1681565b5f5f5f8373ffffffffffffffffffffffffffffffffffffffff1673ffffffffffffffffffffffffffffffffffffffff1681526020019081526020015f206001015f6101000a81548160ff0219169083151502179055508073ffffffffffffffffffffffffffffffffffffffff167f92fd54a0a055c905b1e5f698eee7033d43a894172e2131242b00eeb38955661f426040516104d991906112b3565b60405180910390a250565b5f602052805f5260405f205f91509050805f015490806001015f9054906101000a900460ff1690806002015490806003015490806004018054610526906112f9565b80601f0160208091040260200160405190810160405280929190818152602001828054610552906112f9565b801561059d5780601f106105745761010080835404028352916020019161059d565b820191905f5260205f20905b81548152906001019060200180831161058057829003601f168201915b5050505050908060050180546105b2906112f9565b80601f01602080910402602001604051908101604052809291908181526020018280546105de906112f9565b80156106295780601f1061060057610100808354040283529160200191610629565b820191905f5260205f20905b81548152906001019060200180831161060c57829003601f168201915b5050505050905086565b5f5f5f5f5f8573ffffffffffffffffffffffffffffffffffffffff1673ffffffffffffffffffffffffffffffffffffffff1681526020019081526020015f206040518060c00160405290815f8201548152602001600182015f9054906101000a900460ff1615151515815260200160028201548152602001600382015481526020016004820180546106c4906112f9565b80601f01602080910402602001604051908101604052809291908181526020018280546106f0906112f9565b801561073b5780601f106107125761010080835404028352916020019161073b565b820191905f5260205f20905b81548152906001019060200180831161071e57829003601f168201915b50505050508152602001600582018054610754906112f9565b80601f0160208091040260200160405190810160405280929190818152602001828054610780906112f9565b80156107cb5780601f106107a2576101008083540402835291602001916107cb565b820191905f5260205f20905b8154815290600101906020018083116107ae57829003601f168201915b50505050508152505090508060200151815f01519250925050915091565b425f5f8573ffffffffffffffffffffffffffffffffffffffff1673ffffffffffffffffffffffffffffffffffffffff1681526020019081526020015f20600301819055508273ffffffffffffffffffffffffffffffffffffffff167f5013d842ea3c3acd3553096f34b2ea68b08f4dfddbb3ecab11c9c0fa7e260cc283834260405161087793929190611329565b60405180910390a2505050565b6040518060c001604052808681526020016001151581526020014281526020015f815260200185858080601f0160208091040260200160405190810160405280939291908181526020018383808284375f81840152601f19601f82011690508083019250505050505050815260200183838080601f0160208091040260200160405190810160405280939291908181526020018383808284375f81840152601f19601f820116905080830192505050505050508152505f5f8873ffffffffffffffffffffffffffffffffffffffff1673ffffffffffffffffffffffffffffffffffffffff1681526020019081526020015f205f820151815f01556020820151816001015f6101000a81548160ff021916908315150217905550604082015181600201556060820151816003015560808201518160040190816109c6919061152b565b5060a08201518160050190816109dc919061152b565b5090505060025f8773ffffffffffffffffffffffffffffffffffffffff1673ffffffffffffffffffffffffffffffffffffffff1681526020019081526020015f205f9054906101000a900460ff16610ae457600160025f8873ffffffffffffffffffffffffffffffffffffffff1673ffffffffffffffffffffffffffffffffffffffff1681526020019081526020015f205f6101000a81548160ff021916908315150217905550600186908060018154018082558091505060019003905f5260205f20015f9091909190916101000a81548173ffffffffffffffffffffffffffffffffffffffff021916908373ffffffffffffffffffffffffffffffffffffffff1602179055505b8573ffffffffffffffffffffffffffffffffffffffff167f3865882ba42c6da45583f6ef858d6b05a78187e6dc9fe5dec285082ef66e7feb8642604051610b2c9291906115fa565b60405180910390a2505050505050565b60605f8284610b4b919061164e565b9050600180549050811115610b635760018054905090505b5f8482610b709190611681565b67ffffffffffffffff811115610b8957610b8861135e565b5b604051908082528060200260200182016040528015610bb75781602001602082028036833780820191505090505b5090505f8590505b82811015610c685760018181548110610bdb57610bda6116b4565b5b905f5260205f20015f9054906101000a900473ffffffffffffffffffffffffffffffffffffffff16828783610c109190611681565b81518110610c2157610c206116b4565b5b602002602001019073ffffffffffffffffffffffffffffffffffffffff16908173ffffffffffffffffffffffffffffffffffffffff16815250508080600101915050610bbf565b50809250505092915050565b5f600180549050905090565b6040518060c001604052805f81526020015f151581526020015f81526020015f815260200160608152602001606081525090565b5f5ffd5b5f5ffd5b5f73ffffffffffffffffffffffffffffffffffffffff82169050919050565b5f610ce582610cbc565b9050919050565b610cf581610cdb565b8114610cff575f5ffd5b50565b5f81359050610d1081610cec565b92915050565b5f60208284031215610d2b57610d2a610cb4565b5b5f610d3884828501610d02565b91505092915050565b5f8115159050919050565b610d5581610d41565b82525050565b5f602082019050610d6e5f830184610d4c565b92915050565b5f819050919050565b610d8681610d74565b82525050565b610d9581610d41565b82525050565b5f81519050919050565b5f82825260208201905092915050565b8281835e5f83830152505050565b5f601f19601f8301169050919050565b5f610ddd82610d9b565b610de78185610da5565b9350610df7818560208601610db5565b610e0081610dc3565b840191505092915050565b5f60c083015f830151610e205f860182610d7d565b506020830151610e336020860182610d8c565b506040830151610e466040860182610d7d565b506060830151610e596060860182610d7d565b5060808301518482036080860152610e718282610dd3565b91505060a083015184820360a0860152610e8b8282610dd3565b9150508091505092915050565b5f6020820190508181035f830152610eb08184610e0b565b905092915050565b610ec181610d74565b8114610ecb575f5ffd5b50565b5f81359050610edc81610eb8565b92915050565b5f60208284031215610ef757610ef6610cb4565b5b5f610f0484828501610ece565b91505092915050565b610f1681610cdb565b82525050565b5f602082019050610f2f5f830184610f0d565b92915050565b610f3e81610d74565b82525050565b5f82825260208201905092915050565b5f610f5e82610d9b565b610f688185610f44565b9350610f78818560208601610db5565b610f8181610dc3565b840191505092915050565b5f60c082019050610f9f5f830189610f35565b610fac6020830188610d4c565b610fb96040830187610f35565b610fc66060830186610f35565b8181036080830152610fd88185610f54565b905081810360a0830152610fec8184610f54565b9050979650505050505050565b5f60408201905061100c5f830185610d4c565b6110196020830184610f35565b9392505050565b61102981610d41565b8114611033575f5ffd5b50565b5f8135905061104481611020565b92915050565b5f5f5f6060848603121561106157611060610cb4565b5b5f61106e86828701610d02565b935050602061107f86828701610ece565b925050604061109086828701611036565b9150509250925092565b5f5ffd5b5f5ffd5b5f5ffd5b5f5f83601f8401126110bb576110ba61109a565b5b8235905067ffffffffffffffff8111156110d8576110d761109e565b5b6020830191508360018202830111156110f4576110f36110a2565b5b9250929050565b5f5f5f5f5f5f6080878903121561111557611114610cb4565b5b5f61112289828a01610d02565b965050602061113389828a01610ece565b955050604087013567ffffffffffffffff81111561115457611153610cb8565b5b61116089828a016110a6565b9450945050606087013567ffffffffffffffff81111561118357611182610cb8565b5b61118f89828a016110a6565b92509250509295509295509295565b5f5f604083850312156111b4576111b3610cb4565b5b5f6111c185828601610ece565b92505060206111d285828601610ece565b9150509250929050565b5f81519050919050565b5f82825260208201905092915050565b5f819050602082019050919050565b61120e81610cdb565b82525050565b5f61121f8383611205565b60208301905092915050565b5f602082019050919050565b5f611241826111dc565b61124b81856111e6565b9350611256836111f6565b805f5b8381101561128657815161126d8882611214565b97506112788361122b565b925050600181019050611259565b5085935050505092915050565b5f6020820190508181035f8301526112ab8184611237565b905092915050565b5f6020820190506112c65f830184610f35565b92915050565b7f4e487b71000000000000000000000000000000000000000000000000000000005f52602260045260245ffd5b5f600282049050600182168061131057607f821691505b602082108103611323576113226112cc565b5b50919050565b5f60608201905061133c5f830186610f35565b6113496020830185610d4c565b6113566040830184610f35565b949350505050565b7f4e487b71000000000000000000000000000000000000000000000000000000005f52604160045260245ffd5b5f819050815f5260205f209050919050565b5f6020601f8301049050919050565b5f82821b905092915050565b5f600883026113e77fffffffffffffffffffffffffffffffffffffffffffffffffffffffffffffffff826113ac565b6113f186836113ac565b95508019841693508086168417925050509392505050565b5f819050919050565b5f61142c61142761142284610d74565b611409565b610d74565b9050919050565b5f819050919050565b61144583611412565b61145961145182611433565b8484546113b8565b825550505050565b5f5f905090565b611470611461565b61147b81848461143c565b505050565b5b8181101561149e576114935f82611468565b600181019050611481565b5050565b601f8211156114e3576114b48161138b565b6114bd8461139d565b810160208510156114cc578190505b6114e06114d88561139d565b830182611480565b50505b505050565b5f82821c905092915050565b5f6115035f19846008026114e8565b1980831691505092915050565b5f61151b83836114f4565b9150826002028217905092915050565b61153482610d9b565b67ffffffffffffffff81111561154d5761154c61135e565b5b61155782546112f9565b6115628282856114a2565b5f60209050601f831160018114611593575f8415611581578287015190505b61158b8582611510565b8655506115f2565b601f1984166115a18661138b565b5f5b828110156115c8578489015182556001820191506020850194506020810190506115a3565b868310156115e557848901516115e1601f8916826114f4565b8355505b6001600288020188555050505b505050505050565b5f60408201905061160d5f830185610f35565b61161a6020830184610f35565b9392505050565b7f4e487b71000000000000000000000000000000000000000000000000000000005f52601160045260245ffd5b5f61165882610d74565b915061166383610d74565b925082820190508082111561167b5761167a611621565b5b92915050565b5f61168b82610d74565b915061169683610d74565b92508282039050818111156116ae576116ad611621565b5b92915050565b7f4e487b71000000000000000000000000000000000000000000000000000000005f52603260045260245ffdfea2646970667358221220c33833dee56cac5c8b95319b44424cfa5fab19d2182d2508fd290925ad6950a564736f6c634300081e0033","linkReferences":{}},"methodIdentifiers":{"deactivateMandate(address)":"5d5b7451","getMandate(address)":"30bee5d0","getMandateHolders(uint256,uint256)":"eb88134c","getMandateThreshold(address)":"66f38afe","hasMandateEntry(address)":"13672b8e","mandateHolders(uint256)":"3eb57ebb","mandates(address)":"60d17a6e","recordMandateCheck(address,uint256,bool)":"a85d8623","setMandate(address,uint256,string,string)":"c79ef091","totalMandates()":"f2895ff2"},"id":1}