{"abi":[{"type":"constructor","inputs":[{"name":"_worldIdRouter","type":"address","internalType":"address"}],"stateMutability":"nonpayable"},{"type":"function","name":"GROUP_ID","inputs":[],"outputs":[{"name":"","type":"uint256","internalType":"uint256"}],"stateMutability":"view"},{"type":"function","name":"addressNullifier","inputs":[{"name":"","type":"address","internalType":"address"}],"outputs":[{"name":"","type":"uint256","internalType":"uint256"}],"stateMutability":"view"},{"type":"function","name":"checkHuman","inputs":[{"name":"wallet","type":"address","internalType":"address"}],"outputs":[{"name":"","type":"bool","internalType":"bool"}],"stateMutability":"view"},{"type":"function","name":"isVerifiedHuman","inputs":[{"name":"","type":"address","internalType":"address"}],"outputs":[{"name":"","type":"bool","internalType":"bool"}],"stateMutability":"view"},{"type":"function","name":"nullifierUsed","inputs":[{"name":"","type":"uint256","internalType":"uint256"}],"outputs":[{"name":"","type":"bool","internalType":"bool"}],"stateMutability":"view"},{"type":"function","name":"updateRouter","inputs":[{"name":"_newRouter","type":"address","internalType":"address"}],"outputs":[],"stateMutability":"nonpayable"},{"type":"function","name":"verifyHuman","inputs":[{"name":"wallet","type":"address","internalType":"address"},{"name":"root","type":"uint256","internalType":"uint256"},{"name":"nullifierHash","type":"uint256","internalType":"uint256"},{"name":"externalNullifierHash","type":"uint256","internalType":"uint256"},{"name":"proof","type":"uint256[8]","internalType":"uint256[8]"}],"outputs":[],"stateMutability":"nonpayable"},{"type":"function","name":"worldIdRouter","inputs":[],"outputs":[{"name":"","type":"address","internalType":"contract IWorldID"}],"stateMutability":"view"},{"type":"event","name":"HumanVerified","inputs":[{"name":"wallet","type":"address","indexed":true,"internalType":"address"},{"name":"nullifierHash","type":"uint256","indexed":true,"internalType":"uint256"}],"anonymous":false},{"type":"event","name":"RouterUpdated","inputs":[{"name":"newRouter","type":"address","indexed":true,"internalType":"address"}],"anonymous":false},{"type":"error","name":"NullifierAlreadyUsed","inputs":[]},{"type":"error","name":"ProofVerificationFailed","inputs":[]}],"bytecode":{"object":"0x608060405234801561000f575f5ffd5b5060405161099a38038061099a833981810160405281019061003191906100d4565b805f5f6101000a81548173ffffffffffffffffffffffffffffffffffffffff021916908373ffffffffffffffffffffffffffffffffffffffff160217905550506100ff565b5f5ffd5b5f73ffffffffffffffffffffffffffffffffffffffff82169050919050565b5f6100a38261007a565b9050919050565b6100b381610099565b81146100bd575f5ffd5b50565b5f815190506100ce816100aa565b92915050565b5f602082840312156100e9576100e8610076565b5b5f6100f6848285016100c0565b91505092915050565b61088e8061010c5f395ff3fe608060405234801561000f575f5ffd5b5060043610610085575f3560e01c80639f50b66d116100595780639f50b66d14610137578063a3a57fe114610155578063c851cc3214610171578063de484c4b1461018d57610085565b806263fa27146100895780631f460dc6146100b95780634dd9c0b5146100e957806379f95ee914610107575b5f5ffd5b6100a3600480360381019061009e919061058a565b6101bd565b6040516100b091906105cf565b60405180910390f35b6100d360048036038101906100ce919061058a565b6101da565b6040516100e091906105cf565b60405180910390f35b6100f161022c565b6040516100fe9190610600565b60405180910390f35b610121600480360381019061011c9190610643565b610231565b60405161012e91906105cf565b60405180910390f35b61013f61024e565b60405161014c91906106c9565b60405180910390f35b61016f600480360381019061016a9190610707565b610272565b005b61018b6004803603810190610186919061058a565b610492565b005b6101a760048036038101906101a2919061058a565b610517565b6040516101b49190610600565b60405180910390f35b6002602052805f5260405f205f915054906101000a900460ff1681565b5f60025f8373ffffffffffffffffffffffffffffffffffffffff1673ffffffffffffffffffffffffffffffffffffffff1681526020019081526020015f205f9054906101000a900460ff169050919050565b600181565b6001602052805f5260405f205f915054906101000a900460ff1681565b5f5f9054906101000a900473ffffffffffffffffffffffffffffffffffffffff1681565b60015f8481526020019081526020015f205f9054906101000a900460ff16156102c7576040517fcad2ae0200000000000000000000000000000000000000000000000000000000815260040160405180910390fd5b5f6008866040516020016102db91906107c4565b604051602081830303815290604052805190602001205f1c901c90505f5f9054906101000a900473ffffffffffffffffffffffffffffffffffffffff1673ffffffffffffffffffffffffffffffffffffffff16633bc778e3866001848888886040518763ffffffff1660e01b815260040161035b969594939291906107f8565b5f6040518083038186803b158015610371575f5ffd5b505afa158015610383573d5f5f3e3d5ffd5b505050506001805f8681526020019081526020015f205f6101000a81548160ff021916908315150217905550600160025f8873ffffffffffffffffffffffffffffffffffffffff1673ffffffffffffffffffffffffffffffffffffffff1681526020019081526020015f205f6101000a81548160ff0219169083151502179055508360035f8873ffffffffffffffffffffffffffffffffffffffff1673ffffffffffffffffffffffffffffffffffffffff1681526020019081526020015f2081905550838673ffffffffffffffffffffffffffffffffffffffff167f80d3851ff32cca52160458ec554224f42ec8d5465b5e8d109d342bb41a3d6a3260405160405180910390a3505050505050565b805f5f6101000a81548173ffffffffffffffffffffffffffffffffffffffff021916908373ffffffffffffffffffffffffffffffffffffffff1602179055508073ffffffffffffffffffffffffffffffffffffffff167f7aed1d3e8155a07ccf395e44ea3109a0e2d6c9b29bbbe9f142d9790596f4dc8060405160405180910390a250565b6003602052805f5260405f205f915090505481565b5f5ffd5b5f73ffffffffffffffffffffffffffffffffffffffff82169050919050565b5f61055982610530565b9050919050565b6105698161054f565b8114610573575f5ffd5b50565b5f8135905061058481610560565b92915050565b5f6020828403121561059f5761059e61052c565b5b5f6105ac84828501610576565b91505092915050565b5f8115159050919050565b6105c9816105b5565b82525050565b5f6020820190506105e25f8301846105c0565b92915050565b5f819050919050565b6105fa816105e8565b82525050565b5f6020820190506106135f8301846105f1565b92915050565b610622816105e8565b811461062c575f5ffd5b50565b5f8135905061063d81610619565b92915050565b5f602082840312156106585761065761052c565b5b5f6106658482850161062f565b91505092915050565b5f819050919050565b5f61069161068c61068784610530565b61066e565b610530565b9050919050565b5f6106a282610677565b9050919050565b5f6106b382610698565b9050919050565b6106c3816106a9565b82525050565b5f6020820190506106dc5f8301846106ba565b92915050565b5f5ffd5b5f81905082602060080282011115610701576107006106e2565b5b92915050565b5f5f5f5f5f61018086880312156107215761072061052c565b5b5f61072e88828901610576565b955050602061073f8882890161062f565b94505060406107508882890161062f565b93505060606107618882890161062f565b9250506080610772888289016106e6565b9150509295509295909350565b5f8160601b9050919050565b5f6107958261077f565b9050919050565b5f6107a68261078b565b9050919050565b6107be6107b98261054f565b61079c565b82525050565b5f6107cf82846107ad565b60148201915081905092915050565b82818337505050565b6107f461010083836107de565b5050565b5f6101a08201905061080c5f8301896105f1565b61081960208301886105f1565b61082660408301876105f1565b61083360608301866105f1565b61084060808301856105f1565b61084d60a08301846107e7565b97965050505050505056fea264697066735822122099f8599ef927b1efd1aa3e70d690a77d7cb21d512d900886c1d876350a10b3a164736f6c634300081e0033","linkReferences":{}},"methodIdentifiers":{"GROUP_ID()":"4dd9c0b5","addressNullifier(address)":"de484c4b","checkHuman(address)":"1f460dc6","isVerifiedHuman(address)":"0063fa27","nullifierUsed(uint256)":"79f95ee9","updateRouter(address)":"c851cc32","verifyHuman(address,uint256,uint256,uint256,uint256[8])":"a3a57fe1","worldIdRouter()":"9f50b66d"},"id":3}